:020000040800F2
:10000000080A0020C1010008352F0008012E000851
:10001000312F0008CD020008F53A0008000000006A
:10002000000000000000000000000000492F000850
:10003000DD02000800000000452F00084D2F0008D9
:10004000DB010008DB010008DB010008DB01000820
:10005000DB010008DB010008DB010008DB01000810
:10006000DB010008DB010008DB010008DB01000800
:10007000DB010008DB010008DB010008DB010008F0
:10008000DB010008DB010008DB010008DB010008E0
:10009000DB010008DB010008DB010008DB010008D0
:1000A000DB010008DB010008DB010008DB010008C0
:1000B000DB010008113000081D300008DB010008DA
:1000C000DB010008DB010008DB010008DB010008A0
:1000D000DB010008DB010008DB010008DB01000890
:1000E000DB010008DB010008DB010008DB01000880
:1000F000DB010008DB010008DB010008DB01000870
:10010000DB010008DB010008DB010008DB0100085F
:10011000DB010008DB01000829300008DB010008D2
:10012000DB010008DB010008DB010008DB0100083F
:10013000DB010008DB010008DB010008DB0100082F
:10014000DB010008DB010008DB010008DB0100081F
:10015000DB010008DB010008DB010008DB0100080F
:10016000DB010008DB010008DB010008DB010008FF
:10017000DB010008392F0008DB0100080000000047
:10018000DB010008DB010008DB010008DB010008DF
:10019000DB010008DB010008DB010008DB010008CF
:1001A000052E0008DB010008D1020008DFF80CD0A2
:1001B00000F07AF800480047F93A0008080A0020E1
:1001C0000648804706480047FEE7FEE7FEE7FEE7F1
:1001D000FEE7FEE7FEE7FEE7FEE7FEE7FD2F00088D
:1001E000AD0100082DE9F05F0546002092469B46D0
:1001F00088460646814640241BE02846414647463D
:10020000224600F041F853465A46C01A914110D395
:1002100011461846224600F028F82D1A67EB01080F
:100220004F4622460120002100F01FF817EB00097D
:100230004E41201EA4F10104DFDC484631462A4627
:100240004346BDE8F09FD2B201E000F8012B491E01
:10025000FBD270470022F6E710B513460A46044663
:100260001946FFF7F0FF204610BD202A04DB203A94
:1002700000FA02F1002070479140C2F1200320FAF9
:1002800003F3194390407047202A04DB203A21FAF7
:1002900002F00021704721FA02F3D040C2F120029F
:1002A0009140084319467047064C074D06E0E06848
:1002B00040F0010394E8070098471034AC42F6D3AD
:1002C000FFF778FFC4400008E4400008FEE70000A4
:1002D00040F24C00C2F2000000F032B9704700005A
:1002E000EFF3108072B600BFFEE700002DE9F04189
:1002F0000B680268E3B1D1E9073722F4F8424E6A8D
:100300001A433A4332430260426847F6FF739A4306
:10031000D1E90137D1E903651A433A43D1E90541EF
:1003200032432A432243114341600020BDE8F0815B
:1003300047F6FF7322EA030CD1E90132D1E903E465
:1003400043EA0C0301F114081A4398E8E00142EA79
:100350000E0222432A433243496A3A4342EA0802E0
:10036000114301600020BDE8F08100002DE9F0415B
:100370008368AAB340F6FF72CFF60F721A40CB68BB
:100380004FF20006CFF6FF764F6906EB03330026E7
:10039000CFF6F07606EB07571A433A438260C268FD
:1003A000D1E900378E686FF00F0402F0704204EB61
:1003B00007176FF0FF04013B0D6904EB06260024CC
:1003C0001A43CFF6FF7489693A4304EB054532437B
:1003D00001392A4342EA0161C1600020BDE8F08191
:1003E00003F0704CD1E90032D1E902E401F11008C8
:1003F0004FF20001013B6FF00F07CFF6FF7198E855
:10040000600107EB02126FF0FF0701EB04310024DB
:1004100043EA0C0307EB0E27CFF6FF741A4304EBF5
:10042000054500243A43CFF6F074114304EB065619
:100430002943A8F10104314341EA046181600020AD
:10044000BDE8F081002804BF0120704710B50446C4
:10045000407918B101206071002010BD002020718A
:10046000204600F005F801206071002010BD00005A
:1004700081B043F63001C4F202010068A1F50362C5
:10048000904201D001B0704700200090086840F40D
:1004900080500860086800F480500090009801B017
:1004A0007047000070470000B0B590F83820012A6E
:1004B0004FF0020242D080F8392000EB0112D2E95D
:1004C0000745536A02F1180CA4F1090E1A06BEF191
:1004D000020F38BF03F07F4242EA05450268002957
:1004E00045EA040112D0D4694FF6F075C0F2FC055C
:1004F0002C402143D161DCF80010BEF1010F1161E5
:100500009CBF23F07F41116212E000BF536A4FF697
:10051000F074C0F2FC04234019435162DCF800106F
:10052000BEF1010F916103D8416A21F07F419162D0
:100530000121002280F8391080F838201046B0BD23
:1005400070B50446006846680568F10718BF15F4E1
:1005500080717DD1B0061AD515F4005017D02068EF
:100560006169026822F4005202604FF0200282604A
:10057000E06B40F00200E0634FF0040084F83900C3
:100580004FF0000084F8380009B120468847300752
:100590001AD515F4006017D020686169026822F44A
:1005A000006202604FF008028260E06B40F00400DD
:1005B000E0634FF0040084F839004FF0000084F845
:1005C000380009B12046884770070CD515F48060C3
:1005D00009D02068016821F48061016004218160F4
:1005E000204600F07BF8B00718D515F4007015D040
:1005F00020682169026822F4007202604FF0020252
:100600008260E06BE0634FF0010084F839004FF046
:10061000000084F8380009B120468847F00658BF2A
:1006200070BD15F480502BD02068016821F48051F2
:10063000016010218160E06B0021E063012084F8FB
:100640003900204684F83810BDE87040FFF72ABF13
:10065000016821F480710160E16B41F00101E16307
:1006600001218160042084F839006169002000299B
:1006700084F838003FF46EAF204688476AE700BF31
:1006800070BD0000002804BF0120704710B504466B
:1006900090F8390028B9002084F83800204600F08E
:1006A0001FF8022084F8390094E80710036823F447
:1006B000403319430160416B21F00701114341634D
:1006C000016C43F6FF72914341EA0C010164002082
:1006D0000121E06384F8391010BD0000704700006C
:1006E00080B582B000684BF20001C4F2020188427A
:1006F0001CBF02B080BD0020019043F63000C4F260
:1007000002000168002241F4000101600068052137
:1007100000F40000019001985A2001F015F95A20C8
:1007200002B0BDE8804001F0FBB80000B0B504465F
:1007300000F0F2F8054640F20000C2F20000007836
:10074000611C18BF044400BF00F0E6F8401BA04243
:10075000FAD3B0BD2DE9F04F82B000F13E4242F233
:10076000004502F1FF77C4F202050A2243F6004E6B
:100770004FEAB726A84208BF0922C4F2010E092E8B
:1007800038BF4FEAB7220125002600274FF00008A6
:10079000009208E008F101080437B8F1100F06F1E3
:1007A000020600F0A7800C6805FA08F914EA090FA0
:1007B000F0D0D1F804B003220BF0030CACF101042B
:1007C000B240012C6FEA020A10D88268CC6802EAB3
:1007D0000A02B440224382604268CBF3001422EA4A
:1007E000090204FA08F42243426005E0BCF1030F59
:1007F00002D14FF0030C20E0C2688C6802EA0A02C2
:10080000B4402243BCF1020FC26016D16FF0030264
:1008100002EA58020244D2F820C007F01C050F2358
:100820000C69AB402CEA030304FA05F52B43136271
:10083000D1F804B001250BF0030C02680CFA06F3A2
:1008400002EA0A021A431BF4403F0260A2D00022CF
:1008500043F644030192C4F202031A684FF6084CAF
:1008600042F480421A601A68CFF6FF7C02F480429C
:100870000192019A28F00302724452F80C3007F0FA
:100880000C050F24AC40A343009C04FA05F52B4350
:1008900042F80C30DEF808204B6842EA090543F6BE
:1008A0000C4CDC0258BF22EA0905CEF80850C4F20D
:1008B000010CDCF800209C0242EA090558BF22EA3C
:1008C0000905CCF80050DEF804209C0342EA090533
:1008D00058BF22EA0905CEF80450DEF80020DB03F9
:1008E00042EA090558BF22EA0905CEF80050012561
:1008F00050E700BF02B0BDE8F08F0000426902EA95
:100900000103914341EA034181617047002A08BF16
:10091000090481617047000040F20460C2F20000E7
:100920000068704770470000704700007047000083
:100930002DE9F04F83B006680446304602F040FED1
:10094000012840F03783206803F048F8002800F0C1
:100950003183206803F042F801462068890244BFD1
:100960004FF40011416103F039F801462068C902D3
:1009700044BF4FF48011416103F030F80146206814
:10098000490144BF4FF08061416103F027F80146FF
:100990002068890744BF0221416103F01FF88000ED
:1009A00015D520684FF000514161D6F84004C007CA
:1009B0000DD13046102102F0A7FD304602F048FD6F
:1009C0002068012102F0EEFF2046FFF7ADFF20680E
:1009D00003F004F8C0011AD52568D5F84004029048
:1009E000D5F840040190019820F02E000190029863
:1009F00080074DD40298000757D40298800603D58B
:100A0000019840F0200001900198C5F8400420684A
:100A100002F0E4FF000707D4206802F0DFFF25683A
:100A2000C0060DD492E000BF204600F083FB206892
:100A30000821416102F0D2FF2568C00640F186809E
:100A4000A86920F01000A861286A00F4F011B1F53F
:100A5000802F76D1C0F30A19B9F1000F71D000F0E0
:100A60000F082C2018FB0047BA465AF8441F0029EB
:100A700067D057F8500F57F8042C4844904233D9A8
:100A80002C2018FB0040042180F8601059E000BFC2
:100A90000298C00702D02046FFF744FF019840F0BB
:100AA0000200019002980007A7D5019840F00800C5
:100AB00001900298400707D4204600F037FB0298C7
:100AC00080069DD4A0E700BFA069022840F076828E
:100AD000029800F4C0212068B1F5802F14BF0121D5
:100AE000022102F05FFF70E228464A4602F07AFFD8
:100AF000DAF8000039684844CAF8000001EB090040
:100B00002C22386005EB481018FB0242D0F8101573
:100B1000B2F84020914514D10022C1F6F87211407C
:100B20000FD000F5A0600168022262F39F7101609E
:100B30002C2018FB004090F8541081F0010180F83F
:100B400054102568A86940F01000A861284602F0FA
:100B500045FF800140F12E82206802F0E5FDA1688A
:100B6000002900F02382054606F5A0674FF0000B30
:100B70000FE000BF4FF40071C8F80010314602F0DA
:100B800023FDA0680BF1010B834507F1200780F0DE
:100B90000D820BF00F0025FA00F0C007F1D0396884
:100BA00020685FFA8BF600EB461202F5A06A02F5A8
:100BB000A168D2F80825090402F0040142D40029F2
:100BC0004FF02C025AD1D8F80010890668D4D8F812
:100BD00000108905CED4D8F80010C90740F018815C
:100BE000D8F80010490600F13781D8F8001009073D
:100BF00000F16881D8F80010C90600F16B81D8F8BF
:100C00000010090600F17C81D8F80010490500F1B8
:100C10008D81D8F800008007B3D52C2016FB00404A
:100C200090F861100139072900F24281DFE811F0E4
:100C30009A014001080008003601C4004001C400C8
:100C4000022133E14FF02C0911BBD8F80010C9057F
:100C500038D4D8F80010890600F19080D8F8001038
:100C6000090700F1E780D8F80010490500F1048178
:100C7000D8F80010090631D580210AE00421C8F80F
:100C8000001016FB0241062281F8612076E700BFC2
:100C90000421C8F8001016FB0941062219E000BF24
:100CA0002021C8F8001016FB02410A4612F83D3F09
:100CB000012B7FF466AF00231370022281F86020BD
:100CC0005CE700BF4FF48071C8F8001016FB0941C3
:100CD000072281F86120314602F076FCD8F8000046
:100CE000800552D4D8F80000C0071DD1D8F8000004
:100CF000800753D4D8F80000C0067FF542AF2C20FF
:100D000016FB004090F83F10002918BF022940F060
:100D1000BB80216900294FF00001C16540F0BC8013
:100D2000032180F86110B3E0206940B116FB09404F
:100D3000816CDAF810206FF3DF42891A01652C20EC
:100D400016FB00490121002089F86110C9F85C00F8
:100D5000C8F8001099F83F0003280AD8DFE800F02F
:100D6000023602362068314602F02EFC1020C8F808
:100D70000000206901283AD042E000BF2020C8F8D6
:100D80000000D8F800008005ACD52068314602F09C
:100D90001BFC4FF40070C8F80000F2E616FB094097
:100DA00090F861100139072900F28280DFE801F034
:100DB00078804A8076047A04014651F85C2F01322B
:100DC000032A0A603ED300220A606EE0DAF80000CF
:100DD000314640F00050CAF80000012089F8600058
:100DE00020460122FFF7A2FD2069012808D1D9F889
:100DF0004800B9F84010B0FBF1F0C0073FF4C1AEB5
:100E000099F8540080F0010089F85400B9E600BF59
:100E100016FB02410022CA65D8F80020520605D50B
:100E2000012281F83D204022C8F800200122C8F8A4
:100E3000002029E70821C8F8001016FB0941052207
:100E400047E700BF022280F86020DAF8001062F362
:100E50009F71CAF800102BE016FB0241042281F8B2
:100E60006120012281F83D200022CA65314602F04E
:100E7000ABFB40208FE700BF4FF48061C8F8001043
:100E800016FB0941082224E7032905D10021C16589
:100E90002068314602F098FB10207CE7052105E030
:100EA000012103E0C16D0131C165042180F86010AA
:100EB0000221C8F8001090F8602020463146FFF764
:100EC00035FD5EE60821C8F8001016FB0241052238
:100ED000DAE600BF16FB024C614611F83D3F0022E6
:100EE000C1F81F20002B4FF0030281F82420D0D13D
:100EF0009CF83C20002ACCD101220A70C9E700BF2F
:100F00002169F9B116FB0240014651F85C2F01320C
:100F1000032A0A6020D300220A60042180F86010AE
:100F2000204631460422FFF701FD18E016FB02417E
:100F3000082281F86120314602F046FB4FF48060C0
:100F400029E700BF16FB0241062281F861203146E5
:100F500002F03AFB03E000BF022180F8601080201D
:100F600019E700BF90F83F1001F0FE0102294FF091
:100F7000010180F860109BD12169012902D071B173
:100F800096E700BFC16C00293FF492AFB0F8402053
:100F900011440139B1FBF2F1C9073FF489AF90F870
:100FA000551081F0010180F8551081E720684FF05D
:100FB0000071416103B0BDE8F08F00BFE068012817
:100FC00004BF4EF66020C5F80404204600F0B0F8D7
:100FD000029880063FF514AD16E50000002804BF16
:100FE000012070472DE9F04F8BB00446056890F85A
:100FF000F90228B9002084F8F802204600F04EF8E3
:10100000032084F8F902E86BC0055CBF0020206172
:10101000206802F015FA206804F11C0A0A90D4E94D
:101020000C5004F1040E9AE8C0079EE80E58CDE972
:10103000085003A880E8C0030A988DE80058CDF84E
:101040001CA002F00DF92068012102F021FDD4E975
:10105000008004F108070A90D4E90C01D4E9056581
:1010600004F1240B8CCFD4E907CE9BE8000ECDE928
:10107000080102A80A9980E820504046CDE9007690
:10108000CDE9059ACDF81CB002F052FB012084F89E
:10109000F90200200BB0BDE8F08F0000F0B587B07A
:1010A00000680021C4F20401884201D007B0F0BDFD
:1010B000002743F630060297C4F20206306840F279
:1010C000004440F0020030603068C4F2020400F0D6
:1010D0000200029002984FF4504002900220CDE9A5
:1010E00003070C2002AD0690204629460597FFF71E
:1010F00031FB4FF40050CDE9020720462946049702
:10110000FFF728FB01973068002140F00050306065
:101110003068002200F00050019001984D2000F04E
:1011200013FC4D2000F0FCFB07B0F0BD7047000041
:10113000704700007047000090F83D20202A1CBF37
:1011400002207047242280F83D200268136823F0B3
:1011500001031360536A23F010035362536A194367
:101160005162116841F001011160202180F83D10A9
:101170000020704790F83D20202A1CBF02207047B5
:10118000242280F83D20026889B2136823F001030D
:101190001360D2F824C04FF6F07303EA0C0319432E
:1011A0005162116841F001011160202180F83D1069
:1011B0000020704770B5B8B3044690F83D0028B9D8
:1011C000002084F83C00204600F0B0F8242084F889
:1011D0003D002068016821F001010160016841F4CF
:1011E00000410160016821F40041016000F0DCFD74
:1011F00048F28041C0F21E0140F60013D4F804E02A
:1012000088424FF00001C0F23D0348F2A16C4FF05C
:10121000000238BF01219842C0F2010C38BF012200
:10122000E64538BF0A460AB1012070BD4DF683611C
:10123000C4F21B31A0FB01122168950C4B684FF4DE
:10124000967623F03F0343EA9243754344F6D35620
:101250004B60C1F262060B6AA5FB0656B50923F086
:101260003F03E64538BF950C6A1C1A430A62CA69F7
:1012700048F2A0664CF6FF73C0F20106B64522EABA
:1012800003020BD801384FEA4E03B0FBF3F00130F4
:101290006FF31F30042898BF04201EE0A3680138B4
:1012A00063B119230EFB03F3B0FBF3F001306FF3CE
:1012B0001F3078B100F5804008E000BF0EEB4E0310
:1012C000B0FBF3F001306FF31F3028B100F50040A0
:1012D00003E000BF012000E001201043C86108685E
:1012E000D4E9072320F0C000104318430860886841
:1012F00048F2FF3204F10C0690434CCE18431043E1
:10130000A5698860C86820F0FF0030432843C860A2
:10131000086840F00100086000202021206484F863
:101320003D10206384F83E0070BD00002DE9F047B9
:1013300086B0006845F60047C4F20007B84203D003
:1013400006B0BDE8F08700BF002643F630050196E1
:10135000C4F20205286801AC40F004002860286847
:101360004FF0120800F004000190019801962868DF
:101370004FF0010940F00100286028684FF0040A8E
:1013800000F00100019001984FF40070019007F502
:10139000D6302146CDF80880CDE90396CDF814A0CB
:1013A000FFF7D8F94FF4807001A981E8010307F530
:1013B000D2302146CDE9046AFFF7CCF900962869BE
:1013C00040F400002861286900F4000000900098B3
:1013D00006B0BDE8F087000040F2000040F2046172
:1013E000C2F20000C2F2000100780A6810440860EE
:1013F0007047000080B543F60040C4F20200016867
:1014000041F400710160016841F48061016001688C
:1014100041F480710160032000F0C2FA0F2000F057
:1014200005F800F061FA002080BD000070B586B0BC
:10143000002543F640010195C4F202010A68044602
:1014400042F010020A60096801A801F01001019140
:101450000199694600F088FC049E002E18BF012601
:1014600000F0A2FC4DF68361B040C4F21B31A0FB3A
:1014700001014FF0FF3000EB914140F2785041F212
:101480000002C2F20000C4F2000240F2E733C0E9F9
:101490000021C0E902530561856101F01FF805468E
:1014A00010B1284606B070BD40F27850C2F200007C
:1014B00001F080F805460028F3D1362000F030FA1C
:1014C0000F2C0DD8362021460022002500F03CFAD2
:1014D00040F20400C2F200000460284606B070BD6D
:1014E0000125284606B070BD2DE9F041044690F86C
:1014F000A00001284FF0020008BFBDE8F0814FF0C6
:10150000010884F8A08084F8A100342002FB004088
:10151000D1E900CED1E90267D1E90453C0E91067EF
:10152000C0E91253C0E90ECED1E906CED1E9086573
:10153000D1E90A73C0E91665C0E91873C0E914CE91
:101540000B6B8366204601F063FC2068C0F82480A2
:10155000002084F8A18084F8A000BDE8F08100009C
:101560007047000070B504460068866B456B7107D4
:1015700016D515F0040113D0416B21F0040141632D
:101580000421C163D4F8A40040F00100C4F8A40011
:10159000002084F8A11084F8A0002046FFF7E0FFA7
:1015A000B00718D515F0020015D02068416B21F066
:1015B000020141630221C163D4F8A40040F002009B
:1015C000C4F8A400042084F8A100002084F8A0003E
:1015D0002046FFF7C5FFF00718BF15F001000ED039
:1015E0002068416B21F0010141630121C1630020AA
:1015F00084F8A11084F8A000204600F08DF8300790
:1016000058BF70BD15F0080012D02068416B21F062
:10161000080141630821C1630120002184F8A10071
:10162000204684F8A010BDE8704000F05BB900BF10
:1016300070BD0000002804BF0120704710B50446AB
:1016400090F8A10028B9002084F8A000204600F0FE
:1016500065F8022084F8A100D4E9000CD4E9022343
:10166000816921F07041816142EA0C0122691943CC
:10167000836911431943816181684FF6000CCFF2F1
:10168000000C01EA0C018160D4E90513826843EA89
:10169000014111438160C16801EA0C01C160D4E9D4
:1016A0000712C36842EA01411943C160016901EAB6
:1016B0000C010161D4E90912036942EA01411943AD
:1016C0000161416901EA0C014161D4E90B124369EE
:1016D00042EA01411943416194F8351094F83620EB
:1016E000C36A120403F07F43C36242EA012194F803
:1016F0003420C36A11441943C162416B41F00601B1
:101700004163816941F00101816100200121C4F838
:10171000A40084F8A11010BD704700002DE9F04727
:1017200092B0054600201190CDE90F00CDE90D00E3
:1017300001A840F2004904302C21C4F20209FEF74E
:1017400089FD2868A9F51C41884203D012B0BDE884
:10175000F08700BF08200190322005904FF002086A
:1017600001A8CDF81C8000F02BF9002818BFFEF767
:10177000B7FD002743F630000097C4F2020041692C
:101780000DAD41F08061416141690E2401F080613D
:10179000009100990097016841F020010160016803
:1017A00001F02001009100990097016841F00101CA
:1017B0000160016801F00101009100990097016842
:1017C00041F002010160016801F0020100910099FD
:1017D0000097016841F040010160016801F040019B
:1017E000009100990097016841F0040101600168CF
:1017F00001F00401009100990097016841F008018F
:1018000001600068294600F00800009000984FF43D
:101810008060CDE90D0809F58050CDE90F7711946E
:10182000FEF798FF41F65800CDE90D08A9F5806054
:101830002946CDE90F771194FEF78CFF0320CDE9FF
:101840000D084FF0090A48462946CDE90F77CDF833
:1018500044A0FEF77FFF4FF47060CDE90D084846C5
:101860002946CDE90F771194FEF774FF4FF40C6011
:1018700009F5A056CDE90D0830462946CDE90F7788
:101880001194FEF767FF4FF49860CDE90D0809F554
:1018900080602946CDE90F771194FEF75BFF482061
:1018A000CDE90D0809F500602946CDE90F771194BF
:1018B000FEF750FF4FF4A050CDE90D083046294601
:1018C000CDE90F77CDF844A0FEF744FF582005215D
:1018D000002200F039F8582000F022F812B0BDE8DC
:1018E000F08700007047000082B0002043F64001FE
:1018F0000190C4F202014A6842F480424A604A6898
:1019000002F480420192019A0090086840F08050F1
:101910000860086800F080500090009802B070479E
:10192000002848BF7047C1B200F01F00012202FA30
:1019300000F04EF20012CEF2000242EAD10121F094
:10194000030108607047000010B54EF60C5CCEF243
:10195000000CDCF80030C3F3022E8EF00704042CD8
:1019600028BF0424BEF103034FF0FF3E0EFA04F437
:1019700038BF0023A14399400EFA03F39A43114361
:1019800000F00F0200F160430901043A03F56443DB
:101990006244002848BF02F10C03197010BD00001A
:1019A0004EF60C51CEF200010A684FF6FF031A40C2
:1019B00060F30A2242F0806040F0FD7008607047DA
:1019C000F0B581B00446006843F6700610F0430F8E
:1019D000C4F2020633D06827C4F2472700203860DB
:1019E000FEF79AFF054600BF56F8700C000105D5BA
:1019F000FEF792FF401B0228F6D9AFE02068C1072E
:101A00006AD1810771D4400608D5E168D4E90102A2
:101A1000090641EA801040EA0270706101203860D6
:101A2000FEF77AFF054600BF56F8700C000105D49A
:101A3000FEF772FF401B0228F6D98FE0206810F0F5
:101A40000C0F68D06827C4F247270020B860FEF763
:101A500063FF054656F8700C800005D5FEF75CFF65
:101A6000401B0228F6D979E02068410713D5B169F7
:101A7000D4E9042301F0E04141EA821141EA036123
:101A8000256AB161F1696FF0FF0221F4F85102EBB0
:101A900005221143F16100070FD5B069216900F0FB
:101AA0007060A26940EA811040EA0270636AB06126
:101AB000F06920F440301843F0610120B860FEF76F
:101AC0002BFF054656F8700C800023D4FEF724FF48
:101AD000401B0228F6D941E0D4E90121090741EA77
:101AE0008211716181077FF58EAF7169626801F0C3
:101AF000E041E36841EA821141EA0361E56971610D
:101B0000F1696A1E21F01F011143F16140063FF5A2
:101B10007CAF83E72068810654D50020009056F8FA
:101B2000300C47F2000740F0805046F8300C56F871
:101B3000300CC4F2000700F0805000900098386824
:101B400040F480703860FEF7E7FE05463868C0054F
:101B500008D4FEF7E1FE401B0228F7D9032001B0AC
:101B6000F0BD00BF306810F4407013D0A16A01F4DA
:101B7000407188420ED0306840F64061C4F247217F
:101B8000012220F440700A6000220A603060306850
:101B9000C00729D12068A16A56F8682C4FF6FF4784
:101BA00001F4407322F4F812C0F6FF770F40B3F54A
:101BB000407F08BF3A4346F8682C32686FF31F3104
:101BC00011433160C00603D4002001B0F0BD00BF56
:101BD00094F82C0040F64061C4F24721C1F8A003FC
:101BE000002001B0F0BD00BFFEF796FE054641F2B1
:101BF000883730688007CDD4FEF78EFE401BB84290
:101C00004FF00300F5D9ECE72DE9F041002800F092
:101C10008B8043F60808C4F202080446D8F8F8039B
:101C20000D4600F00F00884207D288F8F853D8F824
:101C3000F80300F00F00A84276D12068810717D57D
:101C4000410705D5D8F8001041F4E051C8F800105C
:101C5000010705D5D8F8001041F46041C8F800101C
:101C6000D8F80010A26821F0F0011143C8F8001064
:101C7000C0073FD1D8F8F80300F00F00A84207D9F9
:101C800088F8F853D8F8F80300F00F00A8424BD1B9
:101C90002068410707D5D8F80010E26821F4E05128
:101CA0001143C8F80010000708D5D8F800002169D2
:101CB00020F4604040EAC100C8F8000000F09CF841
:101CC000D8F8001044F26C02C1F30311C0F6000210
:101CD000515C40F2080220FA01F140F20400C2F225
:101CE00000000068C2F200021160FFF79FFB0020B5
:101CF000BDE8F0816068811E022907D258F8081CEF
:101D000089015CBF0120BDE8F08111E0012807D105
:101D100058F8081C89035CBF0120BDE8F08107E08A
:101D200058F8081C890703D40120BDE8F08100BFE2
:101D3000D8F8001021F003010843C8F80000FEF7AE
:101D4000EBFD064641F28837D8F80000616800F0E4
:101D50000C00B0EB810F8DD0FEF7DEFD801BB8428A
:101D6000F2D90320BDE8F0810F22026043F6080299
:101D7000C4F20202136803F003034360136803F024
:101D8000F0038360136803F4E053C360D2F800C02B
:101D90004FF4E05303EADC030361D2F8F80300F0E8
:101DA0000F0008607047000040F2080043F6080189
:101DB000C2F20000C4F202010068096844F27C0229
:101DC000C1F38221C0F60002515CC8407047000098
:101DD00040F2080043F60801C2F20000C4F202011A
:101DE0000068096844F27C02C1F34231C0F6000287
:101DF000515CC8407047000010B543F60404C4F2BB
:101E00000204606800F00C0142F200400829C0F2B0
:101E1000F40007D0042918BF10BD41F20020C0F221
:101E20007A0010BD216801F03F0221682368490251
:101E3000C3F3881106D4A1FB00010023FEF7D2F9F9
:101E400007E000BF41F20020C0F27A004843B0FB37
:101E5000F2F021680222C1F3014102EB4101B0FB23
:101E6000F1F010BD2DE9F04182B0002868D00446A1
:101E7000007843F60006C007C4F202060BD0B06833
:101E800000F00C00042840F09F803068800302D5E9
:101E90006068002854D0207880071AD5B06810F008
:101EA0000C0F09D0B06800F00C00082840F0A680A4
:101EB0007068400200F1A2803068800702D5E068B7
:101EC00001283DD13068216920F0F80040EAC100C6
:101ED00030602078000737D4207840074CD4A569BB
:101EE00055B3B06800F00C00082840F0BB80012D0D
:101EF00026D07068E16900F480028A4220D1216A0C
:101F000000F03F028A421BD147F6C071626A01406D
:101F1000B1EB821F14D1A16A4FF6FF73C903994335
:101F200000F44032A1F580318A4209D1E16A00F023
:101F30007060B0EB016F03D1002002B0BDE8F0810A
:101F4000012002B0BDE8F0816069002840F2000085
:101F5000C4F2472076D00121C0F8801EFEF7DCFCD9
:101F6000054600BF706F8007B6D4FEF7D5FC401B56
:101F70000228F7D9DDE000BF306C10F080580AD19C
:101F800000200190306C40F080503064306C00F0E4
:101F900080500190019847F20007C4F200073868AA
:101FA000C00541D4386840F480703860FEF7B4FC56
:101FB000054600BF3868C00536D4FEF7ADFC401BAF
:101FC0000228F7D9B5E000BFB06800F00C0008287F
:101FD00003D1706840023FF558AF6068B0F5803FAC
:101FE00007D0B0F5A02F40F08D80306840F48020FD
:101FF0003060306840F4803030608DE0E068002868
:1020000052D00020C4F2472001210160FEF784FC79
:10201000054600BF306880073FF554AFFEF77CFCF3
:10202000401B0228F6D984E0A068012805D00528C5
:102030004ED1306F40F004003067306F40F0010047
:1020400030674FE00021C0F8801EFEF765FC0546B2
:10205000706F80077FF540AFFEF75EFC401B0228E3
:10206000F6D966E00027C4F2472700203866FEF75D
:1020700053FC022D05460BD1306880015ED5FEF77A
:102080004BFC401B02284FF00300F5D955E700BF79
:10209000306880017FF550AFFEF73EFC401B022800
:1020A0004FF00300F4D948E70020C4F24720002194
:1020B0000160FEF731FC0546306880077FF509AF07
:1020C000FEF72AFC401B02284FF00300F4D934E746
:1020D000316F002821F001013167316F21F00401D7
:1020E00031674DD0FEF718FC054641F2883700BF36
:1020F000306F800756D4FEF70FFC401BB842F7D96B
:1021000017E000BF3168002821F480313160316868
:1021100021F4802131604FD0FEF7FEFB054600BF61
:10212000306880033FF5B7AEFEF7F6FB401B64282E
:10213000F6D9032002B0BDE8F08100BF04F11C0510
:102140002FCD084340EA8210D9034FF6FF72914326
:10215000A1F5803140EA05600843706001203866CF
:10216000FEF7DAFB044600BF306880013FF5E4AEBD
:10217000FEF7D2FB001B02284FF00300F4D9DCE687
:10218000FEF7CAFB054641F2883700BF306F800773
:1021900008D5FEF7C1FB401BB8424FF00300F5D94C
:1021A000CBE600BFB8F1000F7FF499AE306C20F0A1
:1021B0008050306493E600BFFEF7AEFB054600BFDB
:1021C000306880037FF567AEFEF7A6FB401B6428EE
:1021D0004FF00300F4D9B0E6002804BF0120704797
:1021E000B0B5044690F82C000D4628B9002084F8BC
:1021F0002D00204600F012F8022084F82C00206800
:10220000211DFEF773F8D4E900022946FEF7AEF867
:10221000012084F82C000020B0BD00002DE9F0471B
:1022200086B040F28C00C2F200000178002961D132
:102230004FF0010A80F800A04FF0000843F6380084
:10224000CDF80480C4F20200016840F2004441F07D
:10225000010101600068C4F2020400F00100019075
:1022600001984FF63F0001AD01904FF0020903269F
:102270000C2704F580502946CDE90298049605976D
:10228000FEF768FA04F580602946CDE901A9CDE999
:1022900003860597FEF75EFA48F23310CDE901098F
:1022A00004F5A0502946CDE903860597FEF752FABA
:1022B0004FF68370CDE9010904F540602946CDE968
:1022C00003860597FEF746FA4CF20370CDE9010943
:1022D00004F500602946CDE903860597FEF73AFA32
:1022E0006020CDE9010920462946CDE903860597FE
:1022F000FEF730FA06B0BDE8F087000070B538B1DF
:102300000446406A30B10020206104F1140007E067
:10231000012070BD6068B0F5827F03D004F11C001D
:10232000002101600026A66294F8510020B92046E1
:1023300084F8506000F03CF8022084F8510094E8E2
:102340000F0001F48271056802F4044225F0400593
:102350000560114403F400622369114403F0020292
:102360006369114403F00102A369E569114403F4B0
:102370000072114405F03802256A114405F080020C
:10238000A56A114305F4005211430160626A0421F9
:1023900001EA134102F0100211444160C16921F4C5
:1023A0000061C1610120666584F85100304670BD4E
:1023B00080B586B0016845F20000C4F20100814298
:1023C00002D006B080BD00BF002143F6300201916B
:1023D000C4F20202536900F5444043F48013536190
:1023E000536903F480130193019B0191136843F037
:1023F00020031360126802F020020192019A4FF448
:10240000607201920222CDE9022104910521059119
:1024100001A9FEF79FF906B080BD000070470000DB
:102420007047000010B590F83C20012A4FF00202DE
:1024300051D080F83D200268D2F804E0D2F808C0FC
:102440000C682EF07003234341F2FF74C4F20004C1
:10245000A24253600EDC40F2FF73C4F200039A42C2
:1024600016DCB2F1804F2BD040F20043C4F20003DF
:1024700024E000BF40F2FF33C4F201039A4213DCB0
:1024800041F60003C4F200039A4219D0002313E07E
:1024900040F60003C4F200039A4211D040F6004314
:1024A000C4F200030AE000BF44F20003C4F20103D7
:1024B0009A4205D040F20043C4F201039A4204D18B
:1024C00049682CF08003194391600121002280F8B3
:1024D0003D1080F83C20104610BD0000002804BFCD
:1024E0000120704710B5044690F83D0028B900203F
:1024F00084F83C00204600F01FF8022084F83D00DC
:102500002068211D00F096FD012084F8460084F823
:102510003E0084F83F0084F8400084F8410084F8CD
:10252000420084F8430084F8440084F8450084F8AD
:102530003D00002010BD000010B582B0006840F6DC
:102540000001C4F20001884216D040F20041C4F2FA
:10255000000188422CD10020019043F64000C4F2D3
:10256000020001681D2441F002010160006800F0D2
:102570000200019001980FE00020009043F6400017
:10258000C4F2020001681E2441F0040101600068E9
:1025900000F0040000900098204600210022FFF780
:1025A000D3F9204602B0BDE81040FFF7B9B900BF2B
:1025B00002B010BD90F83D1001291CBF01207047EA
:1025C000022180F83D10006841F2FF72C168C4F238
:1025D0000002904241F00101C1600DDC40F2FF7148
:1025E000C4F20001884215DCB0F1804F2AD040F2DD
:1025F0000041C4F2000123E040F2FF31C4F20101C6
:10260000884213DC41F60001C4F20001884219D06F
:10261000002113E040F60001C4F20001884211D00D
:1026200040F60041C4F200010AE000BF44F200019C
:10263000C4F20101884205D040F20041C4F2010118
:10264000884206D1816801F00701062904BF0020F5
:102650007047016841F001010160002070470000EF
:1026600080B590F83C20012A4FF0020200F0C280B1
:1026700080F83D20D0F800C04FF67772DCF80830C3
:1026800023EA0202CCF808200B684F2B28DC1F2B12
:1026900044DD202B45D0302B43D0402B40F0AC8084
:1026A000D1F804E0C968DCF82030DCF8202022F002
:1026B0000102CCF82020DCF8182022F0F00242EAD7
:1026C000011123F00A0242EA0E02CCF81810CCF8ED
:1026D0002020DCF8081041F0470121F0300180E0B3
:1026E0006F2B27DDB3F5005F48D0B3F5805F7AD05C
:1026F000702B40F08180D1E901E3C968DCF8082043
:1027000043EA0E0322F47F4243EA01211143CCF84D
:102710000810DCF8081041F0770162E00BB1102BD3
:102720006AD1DCF8081021F07001194341F007016B
:1027300057E000BF502B35D0602B5DD1D1F804E0BD
:10274000C968DCF8203023F01003CCF82030DCF826
:102750001830DCF8202023F4704322F0A00243EA72
:10276000013142EA0E12CCF81810CCF82020DCF827
:10277000081041F0670121F0100132E0D1E901E3D6
:10278000C968DCF8082043EA0E0322F47F4243EADA
:1027900001211143CCF80810DCF8081041F4804105
:1027A0001FE000BFD1F804E0C968DCF82030DCF895
:1027B000202022F00102CCF82020DCF8182022F0A2
:1027C000F00242EA011123F00A0242EA0E02CCF8BA
:1027D0001810CCF82020DCF8081041F0570121F047
:1027E0002001CCF808100022012180F83D100021C2
:1027F00080F83C10104680BD0122F5E770470000CC
:1028000010B5016804460869800744BFC8685FEADC
:10281000807039D40869400744BFC8685FEA4070D7
:102820003ED40869000744BFC8685FEA007045D419
:102830000869C00644BFC8685FEAC0604AD4086936
:10284000C0071CBFC8685FEAC07051D108690006A4
:1028500044BFC8685FEA006052D40869400644BFBC
:10286000C8685FEA406053D40869800646BFC868FC
:102870005FEA806010BD6FF0200220460A61BDE86B
:102880001040FFF7CDBD00BF6FF0020008610120CE
:1028900020778869800743D02046FFF7AFFF45E0E7
:1028A0006FF00400086102202077886910F4407FEF
:1028B00040D02046FFF7A2FF42E000BF6FF00800C3
:1028C000086104202077C86980073DD02046FFF7C3
:1028D00095FF3FE06FF01000086108202077C8697D
:1028E00010F4407F3AD02046FFF788FF3CE000BF5D
:1028F0006FF001000861204600F000FA2168A5E7AA
:102900006FF0800008612046FFF788FD2168A4E78A
:102910006FF040000861204600F00AFA2168A3E742
:10292000204600F0FFF8204600F0E6F9216800207C
:1029300020776FE7204600F0F5F8204600F0DCF93C
:102940002168002020776CE7204600F0EBF8204655
:1029500000F0D2F921680020207769E7204600F0D6
:10296000E1F8204600F0C8F921680020207766E7EA
:10297000F0B590F83C30012B04BF0220F0BD4FEAC7
:10298000B202032A00F2C880DFE802F00234689A3B
:10299000026840F20046136A42F4806423F00103A7
:1029A0001362136AD2F804E0D2F818C08D6823F0DD
:1029B0000203C4F20106B44243EA050305D1CD681F
:1029C00023F00C0325F004052B430D68B44207D116
:1029D000D1E905462EF4407E44EA0E0444EA060E90
:1029E0002CF073062E43C2F804E0966149685163E7
:1029F0008BE000BF026840F20045136A42F4806435
:102A000023F010031362136AD2F804E0D2F818C05E
:102A10008E6823F02003C4F20105AC4243EA06139A
:102A200007D1CE686FF0400723F0C00307EA06160F
:102A300033430E68AC4206D1D1E905452EF4406718
:102A4000254347EA850E2CF4E64747EA0627C2F8F5
:102A500004E097614968916357E000BF026840F263
:102A60000045136A42F4806423F480731362136A8E
:102A7000D2F804E0D2F81CC08E6823F40073C4F2CC
:102A80000105AC4243EA062307D1CE6840F2FF4776
:102A9000360223F44063BE4333430E68AC4206D192
:102AA000D1E905452EF44057254347EA051E2CF091
:102AB00073073743C2F804E0D7614968D16324E063
:102AC000026840F20047136A42F4806623F48053A0
:102AD0001362D2F820E05368D4690D68D1F808C0B9
:102AE000C4F20107BE4204D14E6923F4804343EA95
:102AF000861324F4E64646EA05265360D6612EF492
:102B00000057496847EA0C33116400211362002220
:102B100080F83C200846F0BD0121002280F83C20CE
:102B20000846F0BD10B5044641F60000C4F20200AC
:102B30004FF48041FDF7E2FE20680021416210BDA4
:102B4000002804BF0120704710B5044690F83D00EE
:102B500028B9002084F83C00204600F01FF802202D
:102B600084F83D002068211D00F064FA012084F8FB
:102B7000460084F83E0084F83F0084F8400084F862
:102B8000410084F8420084F8430084F8440084F84B
:102B9000450084F83D00002010BD00007047000093
:102BA00041B1082916D0042914BF00F1410200F1F7
:102BB0003F0211E090F83E20012A1CBF012070471F
:102BC000022280F83E204FEAB103032B4FF00102AE
:102BD00016D81FE000F140021278012A1CBF012024
:102BE0007047022208290DD0042914BF80F8412023
:102BF00080F83F204FEAB103032B4FF0010209D9BF
:102C00001046704780F840204FEAB103032B4FF085
:102C10000102F5D844F2840C0068C0F6000C5CF8A0
:102C200023C0C36801F01F0143EA0C03C360036AB9
:102C300002FA01F123EA01020262026A114341F23F
:102C4000FF72C4F20002904201620FDC40F2FF7199
:102C5000C4F2000188421BDCB0F1804F3ED040F24C
:102C60000041C4F20001884238D03FE040F2FF3119
:102C7000C4F20101884219DC41F60001C4F20001EE
:102C800088422BD00021C4F2010188421AD02DE0E5
:102C900040F60001C4F2000188421FD040F6004116
:102CA000C4F20001884219D020E000BF44F20001C4
:102CB000C4F20101884211D040F20041C4F2010186
:102CC000884213D1416C40F2004340F48062C4F268
:102CD000010341F400419A42416407D1816801F047
:102CE0000701062902D1002210467047016841F011
:102CF000010101600020704770470000B0B540F24C
:102D000000450446C4F20005006805F540618842AC
:102D100002D1FEF761FB2068A84218BFB0BD05F5DF
:102D200005304FF40051BDE8B040FDF7E7BD0000AD
:102D300070470000002804BF0120704710B504460A
:102D400090F83D0028B9002084F83C00204600F0AF
:102D500021F8242084F83D002068C16821F4005146
:102D6000C160204600F004FA2068016921F4904116
:102D70000161416921F02A014161C16841F40051BA
:102D8000C16000202021206484F83D1084F83E10AA
:102D900010BD000080B586B0016841F20000C4F2A9
:102DA0000100814202D006B080BD00BF002143F681
:102DB00030020191C4F20202536900F5704043F001
:102DC00010035361536903F010030193019B0191B8
:102DD000136843F001031360126802F001020192CC
:102DE000019A4FF4C06201920222CDE9022103212F
:102DF00004910721059101A9FDF7ACFC06B080BD47
:102E0000FEE7000040F2E830C2F20000FEF7AABB85
:102E1000F0B50468D1E900CE04EBC2108B68CD6830
:102E2000E668D0F88820002702F47042C0F88820B5
:102E3000E268C0F6FF77C2F30B423E40624406EB05
:102E40000E4601323243C0F88820E268D0F88C6028
:102E50006FF3DF2206F47046C0F88C60E4682A4401
:102E60006FF3DF242344013343EA0242C0F88C208D
:102E7000D0F8942022F00702C0F894200B69C0F823
:102E8000943091F8322091F831408D69D0F89C60EF
:102E900000261204C0F89C6091F8307042EA0422C7
:102EA00042EA05623A44C0F89C20D0F8982040F2EB
:102EB000077422F0FF02C0F898204A69072BC0F877
:102EC0009820D0F8A02022EA0402C0F8A020D1E97E
:102ED000074500F1840244EA0504C0F8A040D0F898
:102EE000AC40C0F8AC604C6AC0F8AC4006D844F2C4
:102EF000A400C0F6000050F8230000E00120D36ACF
:102F0000AEEB0C0703F0E023D362D1E90A3143436F
:102F10007843033040EA0340D062106B40F2FF7305
:102F2000984310631163106840F001001060F0BD19
:102F3000FEE70000FEE7000040F29000C2F2000051
:102F4000FDF7F6BC704700007047000070470000B6
:102F5000B0B592B0002443F64000CDE90A44CDE973
:102F600008440594CDE90344CDE901440094C4F23A
:102F700002000168012241F08051016000680225D1
:102F800000F080500090009847F200000094C4F2D6
:102F90000000016862F38F310160006800F4404076
:102FA000009000984FF4803007904FF480000D900F
:102FB00004200E904820CDE90F050320119006A8AB
:102FC00006920C95FEF74EFF20B1EFF3108072B61B
:102FD000FEE700BF0F20CDE901054FF48050CDE999
:102FE000040001A802210394FEF70EFE20B1EFF3C6
:102FF000108072B6FEE700BF12B0B0BD4EF688502A
:10300000CEF20000016841F47001016070470000D9
:1030100040F2E840C2F20000FFF7F2BB40F230504D
:10302000C2F20000FFF7ECBB40F27850C2F20000A1
:10303000FFF7E6BB10B540F6FF3E0368C4F2000E92
:1030400040F2004C7045C4F2010C27DCB0F1804F17
:1030500031D040F20042C4F2000290422BD040F640
:103060000002C4F20002904225D041F6FF72C4F281
:103070000002904229DC70453CDCB0F1804F5FD00B
:1030800040F20042C4F20002904259D040F60002E1
:10309000C4F20002904253D056E000BF40F6004216
:1030A000C4F20002904206D0604504D00022C4F26F
:1030B00001029042D9D14A6823F07003134341F6CC
:1030C000FF72C4F200029042D5DD43F6FF72C4F2F3
:1030D0000102904222DC42F20002C4F2000290425D
:1030E0002ED00022C4F20102904229D0604527D0A0
:1030F0002AE000BF40F60042C4F2000290421FD016
:1031000041F60002C4F20002904219D041F600429A
:10311000C4F20002904213D016E000BF44F2000255
:10312000C4F2010290420BD044F60002C4F2010244
:10313000904205D044F20042C4F20102904203D111
:10314000CA6823F44073134323F080024B69D1F81B
:1031500000E08C681A430260C46240F48062C0F8E8
:1031600028E0624504BF096901630121416110BD86
:1031700010B504460068D4E902C22369016921F44C
:10318000405111430161626943EA0C01E369114353
:10319000C268194349F20C639A431143C160416903
:1031A000A26921F4407141F20043114340F480626E
:1031B000C4F201039A42416102D1FEF709FE01E027
:1031C000FEF7F2FDE16963681922B1F5004FA0FB3B
:1031D000020123D15A00DB0FFDF704F848F21F511A
:1031E000C5F2EB11A0FB01235A094FF69C73C0F600
:1031F000FF7303F1805302FB0300322303EBC00093
:10320000A0FB01014FF4F87000EA111000EB02106E
:10321000C1F3421108442168886010BD9A009B0FD9
:10322000FCF7E0FF48F21F51C5F2EB11A0FB0123B0
:103230005A094FF69C73C0F6FF7302FB030032235A
:1032400003EB0010A0FB0101F02000EA511000EB9D
:103250000210C1F3431108442168886010BD0000CA
:1032600082B00499DDF808C0012940F64051C0F24F
:1032700003016FD1826B4FF6BF7322F480328263F9
:10328000C268CFF6BD731A40C260C2680B9B22F4BD
:103290004012012BC26003D1C26842F48012C260A6
:1032A00000220092009A01320092009A8A4200F2B3
:1032B000A9800269002A1ED4009A01320092009A65
:1032C0008A4200F29F800269002A14D4009A0132D7
:1032D0000092009A8A4200F295800269002A0AD47C
:1032E000009A01320092009A8A4200F28B800269B1
:1032F000B2F1FF3FD6DC00220092026942F00102E7
:103300000261009A01320092009A8A427AD80269D8
:10331000D2071AD0009A01320092009A8A4271D8DC
:103320000269D20711D0009A01320092009A8A42B3
:1033300068D80269D20708D0009A01320092009A38
:103340008A425FD80269D207DBD10021BCF1010FAC
:1033500072D169E0C268089B42F04002C26000225C
:103360000192019A01320192019A8A4250D802696F
:10337000002A1BD4019A01320192019A8A4247D84D
:103380000269002A12D4019A01320192019A8A42FA
:103390003ED80269002A09D4019A01320192019AA9
:1033A0008A4235D80269B2F1FF3FDADC002201928D
:1033B000026942F001020261019A01320192019A0E
:1033C0008A4225D80269D2071AD0019A01320192A5
:1033D000019A8A421CD80269D20711D0019A01329F
:1033E0000192019A8A4213D80269D20708D0019A41
:1033F00001320192019A8A420AD80269D207DBD1CE
:10340000002106E00321BCF1010F15D10CE000BF43
:103410000321826B002B14BF22F4803242F48032ED
:103420008263BCF1010F07D1826842F0060282601C
:10343000826842F020028260084602B070470000B5
:103440000146806820F0010200208A607047000079
:1034500081B040F64051C0F2030100220092009A70
:1034600001320092009A8A424AD80269002A1BD48B
:10347000009A01320092009A8A4241D80269002AD9
:1034800012D4009A01320092009A8A4238D8026916
:10349000002A09D4009A01320092009A8A422FD859
:1034A0000269B2F1FF3FDADC0022009210220261D1
:1034B000009A01320092009A8A4221D80269D2060B
:1034C0001AD5009A01320092009A8A4218D80269ED
:1034D000D20611D5009A01320092009A8A420FD882
:1034E0000269D20608D5009A01320092009A8A42F7
:1034F00006D80269D206DBD4002001B0704700BFB5
:10350000032001B07047000081B040F64052C0F285
:10351000030200230093009B01330093009B93421E
:103520004AD80369002B1BD4009B01330093009BF6
:10353000934241D80369002B12D4009B01330093BE
:10354000009B934238D80369002B09D4009B0133B8
:103550000093009B93422FD80369B3F1FF3FDADC5D
:10356000890100232031009301610099013100910C
:103570000099914220D8016989061AD50099013134
:1035800000910099914217D80169890611D50099D7
:1035900001310091009991420ED80169890608D540
:1035A0000099013100910099914205D8016989067D
:1035B000DBD4002001B07047032001B07047000049
:1035C000406900F00100704780B581B00022009290
:1035D00000F5A06E49015EF801C05EF80130826816
:1035E000920605D5B3F1FF3F02DD002001B080BD9A
:1035F00051F80E205FEA4C3342F0804241F80E2031
:1036000042D482689206F0D4C26A51F80E0012F4D5
:103610007F0F40D120F0004041F80E0051F80E001D
:1036200040F0004041F80E000098013000900098F2
:10363000B0F57A7FD9D851F80E00B0F1FF3FD4DC55
:103640000098013000900098B0F57A7FCDD851F8FD
:103650000E00B0F1FF3FC8DC0098013000900098E8
:10366000B0F57A7FC1D851F80E00B0F1FF3FBCDC55
:103670000098013000900098B0F57A7FB5D851F8E5
:103680000E000028D0D4B0E7D0F8102451F80E0076
:1036900012F47F0F06D040F0004041F80E000020E9
:1036A00001B080BD20F0004041F80E0051F80E003E
:1036B00040F0004041F80E00009801300090009862
:1036C000B0F57A7F3FF691AF51F80E00B0F1FF3FB1
:1036D0003FF78BAF0098013000900098B0F57A7FEB
:1036E0003FF683AF51F80E00B0F1FF3F3FF77DAFDB
:1036F0000098013000900098B0F57A7F3FF675AFE2
:1037000051F80E00B0F1FF3F3FF76FAF0098013066
:1037100000900098B0F57A7F3FF667AF51F80E0041
:103720000028C9D461E70000D0F8140480B27047C3
:1037300070B582B001460020C1F8000E886BDDF83C
:1037400018C040F400108863886B20F40020886360
:10375000886B20F480208863C86BC00502D4D1F840
:10376000000407E0D1F80004012B03D140F004006D
:1037700002E000BF20F0040040F64053C1F800040E
:10378000C0F20303002000900098013000900098E0
:10379000984249D8086900281BD40098013000904D
:1037A0000098984240D80869002812D40098013047
:1037B00000900098984237D80869002809D40098EA
:1037C00001300090009898422ED80869B0F1FF3F70
:1037D000DADC002000904FF484600861009801302A
:1037E0000090009898421FD8086980061AD5009862
:1037F000013000900098984216D80869800611D5CB
:10380000009801300090009898420DD80869800611
:1038100008D50098013000900098984204D80869B3
:103820008006DBD4002000E0012000250195019DE9
:1038300001350195019D9D4248D80D69002D1BD48D
:10384000019D01350195019D9D423FD80D69002DD7
:1038500012D4019D01350195019D9D4236D80D6917
:10386000002D09D4019D01350195019D9D422DD862
:103870000D69B5F1FF3FDADC0025019510250D61DA
:10388000019D01350195019D9D421FD80D69ED06F1
:103890001DD5019D01350195019D9D4216D80D69EB
:1038A000ED0614D5019D01350195019D9D420DD870
:1038B0000D69ED060BD5019D01350195019D9D42D8
:1038C00004D80D69ED06DBD401E000BF0120D2B3BE
:1038D000541E02F0030E0023032C4FF000041AD3F1
:1038E00022F003024FF0FF35002400BF0E19043A06
:1038F00004F18004C6F80855C6F80C35C6F82855FA
:10390000C6F82C35C6F84855C6F84C35C6F8685583
:10391000C6F86C35EAD1BEF1000F14D001F5A062F3
:1039200022444FF0FF340023BEF1010F9460D360B6
:1039300009D0BEF1020F9462D36204D04FF0FF337E
:1039400093640023D36400228A614FF0FF324A61FE
:10395000CA6B40F2002312F4807240F200364FF43A
:103960000072C0F20013C0F2E00608BF802204BF5C
:103970008023C0F2600304BFE026C0F24006BCF121
:10398000000F4A628B62C1F8006103D18A6942F07C
:1039900010028A618A690823CAF220331A438A61B5
:1039A00002B070BDD0F8002401F0030322F003023E
:1039B000C0F80024D0F80024012942EA0302C0F82C
:1039C000002405D0022907D141F2707102E000BF46
:1039D0004BF68031C0F804140020704741698069BB
:1039E0000840704710B5930802F0030E2CD05A1E01
:1039F000032A03F0030C0FD323F003034FF4805288
:103A00008458043B0C6084584C6084588C60845803
:103A1000CC6001F11001F3D1BCF1000F14D04FF4D0
:103A2000805284580B46BCF1010F43F8044B05D17A
:103A30001946BEF1000F0AD11EE000BF8258BCF14A
:103A4000020F4A601AD10831BEF1000F14D04FF4B2
:103A5000805280580A46BEF1010F02F8010B04BFE4
:103A6000104610BD020ABEF1020F4A7004BF881C46
:103A700010BD000C88700331084610BD4FF4805211
:103A800082588A600C31BEF1000FE0D1F4E70000EB
:103A9000B0B50446C06820F0C040E06091B1012993
:103AA00026D1E068002540F00050E0600120FCF7DE
:103AB0003DFE6069C00705F1010014D1312D0546B6
:103AC000F4D310E0E068002540F08040E06000BFE3
:103AD0000120FCF72BFE6069C00705F1010002D050
:103AE000312D0546F4D33238B0FA80F04009B0BD2C
:103AF0000120B0BDFEE7000094B040F2000AC4F21D
:103B0000020AFDF777FCFFF723FA002643F63000A0
:103B100005961096C4F2020001680AF5006441F0AF
:103B2000040101600168002201F004011091109964
:103B300010960168162741F020010160016801F02C
:103B40002001109110991096016841F080010160E8
:103B5000016801F08001109110991096016841F000
:103B600001010160016801F00101109110991096A6
:103B7000016841F002010160016801F00201109149
:103B800010991096016841F040010160016801F050
:103B90004001109110991096016841F010010160E8
:103BA000016801F01001109110991096016841F020
:103BB000080101600068162100F0080010901098BC
:103BC0002046FCF7A3FE504680210022FCF79EFE13
:103BD0000AF5406528464FF440510022FCF796FE56
:103BE0000AF5C05948464FF4C0410022FCF78EFE4A
:103BF000019701AF4FF0010820463946CDE9028612
:103C00000496FCF7A7FD48F2070001904FF4901BC3
:103C100050463946CDE902B6FCF79CFD8020CDE93F
:103C2000010850463946CDE90366FCF793FD202094
:103C3000CDE9010B204639460396FCF78BFD0420A5
:103C4000CDE901060AF5806039460396FCF782FD4E
:103C50004FF40060CDE90106284639460396FCF78B
:103C600079FD4FF44050CDE9010828463946CDE9A9
:103C70000366FCF76FFD4FF4C040CDE901084846EC
:103C80003946CDE90366FCF765FD40F210050AF5FB
:103C90004050C2F2000528602846FCF7D3FB28B14B
:103CA000EFF3108072B600BFFEE700BF4BF20008D2
:103CB000C4F20208284640F83C8FC0E90166C6609D
:103CC000C0E90A66C0E90C66FCF7DCFC20B1EFF342
:103CD000108072B6FEE700BF05F13C00012101270C
:103CE000FCF7E2FB20B1EFF3108072B6FEE700BFF5
:103CF00040F24010CAF2000045F8080F04201021DD
:103D0000402205F10C0C00264FF4C0738CE84F00E4
:103D10004FF400510722C5E909610221CDE90220D3
:103D200003204FF400640191CDE90501079101A939
:103D30002846C5E901762C620492FEF74DFA28B1B7
:103D4000EFF3108072B600BFFEE700BF40F2943080
:103D5000AAF5D231C2F2000048F2A0624FF48043CB
:103D6000C0F2010280E84600C0E90363C0E90566CD
:103D7000C0E90766FDF71EFA20B1EFF3108072B6B6
:103D8000FEE700BF40F29430C2F200000021FDF7D0
:103D9000D3F928B1EFF3108072B600BFFEE700BF81
:103DA00040F29430C2F2000000210025FDF7E2F954
:103DB00020B1EFF3108072B6FEE700BF40F2E830AA
:103DC000AAF51841C2F20000092201231D27C0E90B
:103DD0000015032140F2471600F1200C0D95C0E9B3
:103DE0000255C0E90452C0E9063740F20D1240F214
:103DF000431340F217178CE88E000663858680F81F
:103E00003650FDF717FC28B1EFF3108072B600BFF3
:103E1000FEE700BF022200250592FF22CDE906251C
:103E20004FF4C06208920722F02009924FF05042EE
:103E3000CDE902054FF4A071CDE90A2040F2E83047
:103E400004910C91C2F2000001A900220195ADF885
:103E500034508DF83650FDF747FB28B1EFF3108052
:103E600072B600BFFEE700BF40F29040AAF53041B5
:103E7000C2F200004FF482724FF40073182780E8FA
:103E800026000A21C0E90355C0E90553C761C0E90E
:103E90000855C0E90A51FEF731FA28B1EFF3108056
:103EA00072B600BFFEE700BF40F2C050AAF57041F5
:103EB000C2F2000000250C2657464FF4E13280E89C
:103EC0002600C0E90355C0E90565C561FEF732FF6C
:103ED00020B1EFF3108072B6FEE700BF40F2900011
:103EE00008F5A831C2F2000001600121C0E90261B9
:103EF00002210561C0E906150562C5624563FDF74B
:103F00006DF818B1EFF3108072B6FEE740F2E844A6
:103F1000C2F200042046FEF74DFB002042F20F7370
:103F20000490CDE90200CDE91000C4E9020320614C
:103F30008020A7F5FE3141F61F42A0612046C4E96A
:103F40000012FEF7CBFA18B1EFF3108072B6FEE75D
:103F50004FF48050019040F2E840C2F2000001A905
:103F6000FEF77EFB20B1EFF3108072B6FEE700BFD4
:103F700040F2E840C2F2000010A9FEF753FA18B16F
:103F8000EFF3108072B6FEE740F23054C2F2000444
:103F9000204600210025FEF703FEA7F5FC3041F680
:103FA0001F4184E8230080204FF6FF72A061204665
:103FB0001395CDE91155CDE90E55CDE90655CDE95D
:103FC0000455C4E90325FEF789FA18B1EFF3108010
:103FD00072B6FEE74FF48050109040F23050C2F2BB
:103FE000000010A9FEF73CFB20B1EFF3108072B681
:103FF000FEE700BF40F23050C2F20000FEF7A0FD25
:1040000020B1EFF3108072B6FEE700BF40F23050EF
:10401000C2F200000EA9FEF705FA18B1EFF3108006
:1040200072B6FEE7002044F620610190CDE902104F
:10403000059040F23050C2F2000001A90022FEF7C4
:1040400097FC18B1EFF3108072B6FEE7FEE702E0CE
:1040500008C8121F08C1002AFAD170477047002013
:1040600001E001C1121F002AFBD1704700000000CF
:104070000000000001020304060708090000000018
:104080000102030402000000040000000800000018
:1040900010000000FDFFFFFFFBFFFFFFF7FFFFFF2A
:1040A000EFFFFFFF0400000003000000020000001B
:1040B00002000000020000000100000001000000FA
:1040C00002000000E840000800000020100000008E
:1040D0004E400008F840000810000020F8090000D9
:1040E0005E40000800000000010000001000000019
:0840F0000024F40000000000B0
:04000005080001AD41
:00000001FF
